:1000000045C0000060C000005EC000005CC0000091
:100010005AC0000058C0000056C0000054C0000084
:1000200052C0000050C000004EC000004CC0000094
:100030004AC0000048C0000046C0000044C00000A4
:1000400042C0000040C000003EC000003CC00000B4
:100050003BC0000038C0000036C0000034C00000C3
:1000600032C0000030C000002EC000002CC00000D4
:100070002AC0000028C0000026C0000024C00000E4
:1000800022C0000020C000001EC0000011241FBEBE
:10009000CFEFD0E4DEBFCDBF11E0A0E0B1E0EEE4F1
:1000A000F2E000E00BBF02C007900D92A632B1074C
:1000B000D9F721E0A6E2B1E001C01D92AD33B2074D
:1000C000E1F778D0C2C09CCF1F920F920FB60F926B
:1000D00011240BB60F922F933F938F939F93EF931F
:1000E000FF93E0912701F09128018091C600E75D20
:1000F000FE4F808380912701909128019C012F5F02
:100100003F4F3093280120932701FC01E75DFE4F0C
:1001100080818D3071F481E080932601E091270188
:10012000F0912801E85DFE4F108210922801109294
:100130002701FF91EF919F918F913F912F910F9008
:100140000BBE0F900FBE0F901F901895CF93DF93AB
:10015000EC0160E770E06ED0892B31F080E091E037
:100160005BD083E082B923C06FE670E0CE0162D03D
:10017000892B31F08AE091E04FD081E082B917C03D
:1001800069E670E0CE0156D0892B31F084E191E030
:1001900043D085E082B90BC06CE670E0CE014AD056
:1001A000892B29F08DE191E037D088E082B9DF9189
:1001B000CF9108958FEF84B981B917B818B815D0C9
:1001C0002FEF89EF90E0215080409040E1F700C090
:1001D000000080912601882331F089E291E0B6DFAA
:1001E00010922601EDCF12B8EBCFF89483E390E0A4
:1001F0009093C5008093C40088E98093C10086E095
:100200008093C20078940895E0ECF0E0908195FF2F
:10021000FDCF8093C6000895CF93DF93EC018881D2
:10022000882329F02196F0DF89918111FCCFDF919D
:10023000CF910895FC018191861721F08823D9F789
:0E024000992708953197CF010895F894FFCFC4
:10024E004B6579203D20500D0A004B6579203D20ED
:10025E004F0D0A004B6579203D20490D004B657905
:06026E00203D204C0D00B4
:00000001FF
